{
  "contractName": "PlayerProgress",
  "abi": [
    {
      "inputs": [
        {
          "internalType": "string",
          "name": "playerName",
          "type": "string"
        },
        {
          "internalType": "uint256",
          "name": "health",
          "type": "uint256"
        },
        {
          "internalType": "uint256",
          "name": "x",
          "type": "uint256"
        },
        {
          "internalType": "uint256",
          "name": "y",
          "type": "uint256"
        },
        {
          "internalType": "string[]",
          "name": "completedQuests",
          "type": "string[]"
        },
        {
          "internalType": "bool[]",
          "name": "enemiesDefeated",
          "type": "bool[]"
        }
      ],
      "name": "saveProgress",
      "outputs": [],
      "stateMutability": "nonpayable",
      "type": "function"
    },
    {
      "inputs": [
        {
          "internalType": "address",
          "name": "playerAddress",
          "type": "address"
        }
      ],
      "name": "getPlayerProgress",
      "outputs": [
        {
          "internalType": "string",
          "name": "",
          "type": "string"
        },
        {
          "internalType": "uint256",
          "name": "",
          "type": "uint256"
        },
        {
          "internalType": "uint256",
          "name": "",
          "type": "uint256"
        },
        {
          "internalType": "uint256",
          "name": "",
          "type": "uint256"
        },
        {
          "internalType": "string[]",
          "name": "",
          "type": "string[]"
        },
        {
          "internalType": "bool[]",
          "name": "",
          "type": "bool[]"
        }
      ],
      "stateMutability": "view",
      "type": "function",
      "constant": true
    }
  ],
  "bytecode": "0x608060405234801561001057600080fd5b50610dd6806100206000396000f3fe608060405234801561001057600080fd5b50600436106100365760003560e01c8063638d3d981461003b578063f635c69b14610057575b600080fd5b61005560048036038101906100509190610802565b61008c565b005b610071600480360381019061006c91906107d9565b610177565b60405161008396959493929190610a62565b60405180910390f35b6040518060c00160405280878152602001868152602001858152602001848152602001838152602001828152506000803373ffffffffffffffffffffffffffffffffffffffff1673ffffffffffffffffffffffffffffffffffffffff1681526020019081526020016000206000820151816000019080519060200190610113929190610408565b50602082015181600101556040820151816002015560608201518160030155608082015181600401908051906020019061014e92919061048e565b5060a082015181600501908051906020019061016b9291906104ee565b50905050505050505050565b6060600080600060608060008060008973ffffffffffffffffffffffffffffffffffffffff1673ffffffffffffffffffffffffffffffffffffffff1681526020019081526020016000206040518060c00160405290816000820180546101dc90610cba565b80601f016020809104026020016040519081016040528092919081815260200182805461020890610cba565b80156102555780601f1061022a57610100808354040283529160200191610255565b820191906000526020600020905b81548152906001019060200180831161023857829003601f168201915b5050505050815260200160018201548152602001600282015481526020016003820154815260200160048201805480602002602001604051908101604052809291908181526020016000905b8282101561034d5783829060005260206000200180546102c090610cba565b80601f01602080910402602001604051908101604052809291908181526020018280546102ec90610cba565b80156103395780601f1061030e57610100808354040283529160200191610339565b820191906000526020600020905b81548152906001019060200180831161031c57829003601f168201915b5050505050815260200190600101906102a1565b505050508152602001600582018054806020026020016040519081016040528092919081815260200182805480156103c957602002820191906000526020600020906000905b82829054906101000a900460ff161515815260200190600101906020826000010492830192600103820291508084116103935790505b5050505050815250509050806000015181602001518260400151836060015184608001518560a001519650965096509650965096505091939550919395565b82805461041490610cba565b90600052602060002090601f016020900481019282610436576000855561047d565b82601f1061044f57805160ff191683800117855561047d565b8280016001018555821561047d579182015b8281111561047c578251825591602001919060010190610461565b5b50905061048a9190610594565b5090565b8280548282559060005260206000209081019282156104dd579160200282015b828111156104dc5782518290805190602001906104cc929190610408565b50916020019190600101906104ae565b5b5090506104ea91906105b1565b5090565b82805482825590600052602060002090601f016020900481019282156105835791602002820160005b8382111561055457835183826101000a81548160ff0219169083151502179055509260200192600101602081600001049283019260010302610517565b80156105815782816101000a81549060ff0219169055600101602081600001049283019260010302610554565b505b5090506105909190610594565b5090565b5b808211156105ad576000816000905550600101610595565b5090565b5b808211156105d157600081816105c891906105d5565b506001016105b2565b5090565b5080546105e190610cba565b6000825580601f106105f35750610612565b601f0160209004906000526020600020908101906106119190610594565b5b50565b600061062861062384610b09565b610ad8565b9050808382526020820190508285602086028201111561064757600080fd5b60005b85811015610677578161065d8882610785565b84526020840193506020830192505060018101905061064a565b5050509392505050565b600061069461068f84610b35565b610ad8565b9050808382526020820190508260005b858110156106d457813585016106ba888261079a565b8452602084019350602083019250506001810190506106a4565b5050509392505050565b60006106f16106ec84610b61565b610ad8565b90508281526020810184848401111561070957600080fd5b610714848285610c78565b509392505050565b60008135905061072b81610d5b565b92915050565b600082601f83011261074257600080fd5b8135610752848260208601610615565b91505092915050565b600082601f83011261076c57600080fd5b813561077c848260208601610681565b91505092915050565b60008135905061079481610d72565b92915050565b600082601f8301126107ab57600080fd5b81356107bb8482602086016106de565b91505092915050565b6000813590506107d381610d89565b92915050565b6000602082840312156107eb57600080fd5b60006107f98482850161071c565b91505092915050565b60008060008060008060c0878903121561081b57600080fd5b600087013567ffffffffffffffff81111561083557600080fd5b61084189828a0161079a565b965050602061085289828a016107c4565b955050604061086389828a016107c4565b945050606061087489828a016107c4565b935050608087013567ffffffffffffffff81111561089157600080fd5b61089d89828a0161075b565b92505060a087013567ffffffffffffffff8111156108ba57600080fd5b6108c689828a01610731565b9150509295509295509295565b60006108df83836109d2565b60208301905092915050565b60006108f783836109e1565b905092915050565b600061090a82610bb1565b6109148185610bec565b935061091f83610b91565b8060005b8381101561095057815161093788826108d3565b975061094283610bd2565b925050600181019050610923565b5085935050505092915050565b600061096882610bbc565b6109728185610bfd565b93508360208202850161098485610ba1565b8060005b858110156109c057848403895281516109a185826108eb565b94506109ac83610bdf565b925060208a01995050600181019050610988565b50829750879550505050505092915050565b6109db81610c42565b82525050565b60006109ec82610bc7565b6109f68185610c0e565b9350610a06818560208601610c87565b610a0f81610d4a565b840191505092915050565b6000610a2582610bc7565b610a2f8185610c1f565b9350610a3f818560208601610c87565b610a4881610d4a565b840191505092915050565b610a5c81610c6e565b82525050565b600060c0820190508181036000830152610a7c8189610a1a565b9050610a8b6020830188610a53565b610a986040830187610a53565b610aa56060830186610a53565b8181036080830152610ab7818561095d565b905081810360a0830152610acb81846108ff565b9050979650505050505050565b6000604051905081810181811067ffffffffffffffff82111715610aff57610afe610d1b565b5b8060405250919050565b600067ffffffffffffffff821115610b2457610b23610d1b565b5b602082029050602081019050919050565b600067ffffffffffffffff821115610b5057610b4f610d1b565b5b602082029050602081019050919050565b600067ffffffffffffffff821115610b7c57610b7b610d1b565b5b601f19601f8301169050602081019050919050565b6000819050602082019050919050565b6000819050602082019050919050565b600081519050919050565b600081519050919050565b600081519050919050565b6000602082019050919050565b6000602082019050919050565b600082825260208201905092915050565b600082825260208201905092915050565b600082825260208201905092915050565b600082825260208201905092915050565b6000610c3b82610c4e565b9050919050565b60008115159050919050565b600073ffffffffffffffffffffffffffffffffffffffff82169050919050565b6000819050919050565b82818337600083830152505050565b60005b83811015610ca5578082015181840152602081019050610c8a565b83811115610cb4576000848401525b50505050565b60006002820490506001821680610cd257607f821691505b60208210811415610ce657610ce5610cec565b5b50919050565b7f4e487b7100000000000000000000000000000000000000000000000000000000600052602260045260246000fd5b7f4e487b7100000000000000000000000000000000000000000000000000000000600052604160045260246000fd5b6000601f19601f8301169050919050565b610d6481610c30565b8114610d6f57600080fd5b50565b610d7b81610c42565b8114610d8657600080fd5b50565b610d9281610c6e565b8114610d9d57600080fd5b5056fea2646970667358221220d39d35ca4d0709165ccc72652f04d7d53a681f93c3f8ba118bd2eb86efd39d9c64736f6c63430008000033",
  "immutableReferences": {},
  "source": "// SPDX-License-Identifier: MIT\r\npragma solidity ^0.8.0;\r\n\r\ncontract PlayerProgress {\r\n    struct Player {\r\n        string name;\r\n        uint health;\r\n        uint x;\r\n        uint y;\r\n        string[] completedQuests;\r\n        bool[] enemiesDefeated;\r\n    }\r\n\r\n    mapping(address => Player) private players;\r\n\r\n    function saveProgress(string memory playerName, uint health, uint x, uint y, string[] memory completedQuests, bool[] memory enemiesDefeated) public {\r\n        players[msg.sender] = Player(playerName, health, x, y, completedQuests, enemiesDefeated);\r\n    }\r\n\r\n    function getPlayerProgress(address playerAddress) public view returns (string memory, uint, uint, uint, string[] memory, bool[] memory) {\r\n        Player memory player = players[playerAddress];\r\n        return (player.name, player.health, player.x, player.y, player.completedQuests, player.enemiesDefeated);\r\n    }\r\n}\r\n",
  "sourcePath": "C:\\Users\\matisse\\decentralized-typing-rpg\\contracts\\PlayerProgress.sol",
  "compiler": {
    "name": "solc",
    "version": "0.8.0+commit.c7dfd78e.Emscripten.clang"
  },
  "schemaVersion": "3.4.16",
  "updatedAt": "2024-07-26T15:33:27.840Z",
  "networkType": "ethereum",
  "devdoc": {
    "kind": "dev",
    "methods": {},
    "version": 1
  },
  "userdoc": {
    "kind": "user",
    "methods": {},
    "version": 1
  }
}